:100000000C948E010C94BF010C94BF010C94BF01A1
:100010000C94BF010C94BF010C94BF010C94BF0160
:100020000C94BF010C94BF010C94BF010C94BF0150
:100030000C94BF010C94BF010C94BF010C94BF0140
:100040000C94BF010C94BF010C94BF010C94BF0130
:100050000C94BF010C94BF010C94BF010C947F0C55
:100060000C94BF010C94F30C0C94C90C0C94BF01BC
:100070000C94BF010C94BF010C94BF010C94BF0100
:100080000C94BF010C94BF010C94BF010C94BF01F0
:100090000C94BF010C94BF010C94BF010C94290D6A
:1000A0000C94BF010C94BF010C94BF010C94BF01D0
:1000B0000C94BF010C94BF010C94BF010C94BF01C0
:1000C0000C94BF010C94BF010C94BF010C94BF01B0
:1000D0000C94BF010C94BF010C94BF010C94BF01A0
:1000E0000C94BF010C94D4030C9430050C94E904D7
:1000F0000C941F020C94F1010C9450070C94E9012C
:100100000C940C020C946B030C941A020C9435039F
:100110000C9424020C94F4010C94D9040C947A03EA
:100120000C94FA010C948E030C94960E0C942002FD
:100130000C94FC040C9403050C9408020C947204B7
:100140000C94DF010C9412020C9416020C94ED0135
:100150000C94FE010C949C030C9436030C94210423
:100160000C943E030C9404020C94DA040C94C81909
:100170000C9446060C94E5010000210024002700A1
:100180002A002D00300033000101000004010701A6
:100190000A0100002200250028002B002E0031005B
:1001A000340002010000050108010B0100002000DD
:1001B0002300260029002C002F003200000100003F
:1001C00003010601090105050505070508080808DA
:1001D000020202020A0A08080404040401010101DF
:1001E00001010101030303030303030304070707DA
:1001F0000C0C0C0C0C0C0C0C02020202060606067F
:10020000060606060B0B0B0B0B0B0B0B010210204B
:10021000200808102040102040800201020108043C
:1002200002010102040810204080804020100804D0
:100230000201800402018040201008040201080429
:10024000020101020408102040800102040810206D
:10025000408000000A0B02090C0D0E080703040180
:10026000000000000000000000000000000000008E
:10027000000000000000000000000000000012115B
:10028000100000000000000000000000000000005E
:1002900000000000000000007E306D79335B5F706D
:1002A0007F7B771F0D3D4F470000000000000000DE
:1002B000000000000000000000000000000000003E
:1002C00000000000800180007E306D79335B5F703C
:1002D0007F7B00000000000000771F0D3D4F4700AE
:1002E000370000000E000000670000000000000062
:1002F000000000000000000800771F0D3D4F470080
:10030000370000000E00151D67000000000000000F
:100310000000000000000000960EC81911241FBE46
:10032000CFEFD1E2DEBFCDBF00E00CBF2AE0A6E3F5
:10033000B8E001C01D92A437B207E1F718E0A0E0D1
:10034000B2E0E6E5FDE300E00BBF02C007900D92CE
:10035000A633B107D9F711E0CDE8D1E000E006C03F
:1003600021970109802FFE010E94671CCC38D1071C
:1003700080E00807A9F70E94880F0C94991E0C943E
:1003800000008150823108F05AC0E82FF0E0882741
:10039000E353FE4F8F4F0C94671CED01F101DF0119
:1003A000E501E9011F02F401FA01FE01040208025D
:1003B0000C02120216021F021A022002240280916D
:1003C00080008F77809380000895809180008F7DDA
:1003D000F9CF80918000877FF5CF84B58F7784BD7A
:1003E000089584B58F7DFBCF8091B0008F77809387
:1003F000B00008958091B0008F7DF9CF809190007A
:100400008F77809390000895809190008F7DF9CF31
:1004100080919000877FF5CF8091A0008F778093A7
:10042000A00008958091A0008F7DF9CF8091A00059
:10043000877FF5CF809120018F77809320010895E9
:10044000809120018F7DF9CF80912001877FF5CFAA
:10045000CF93DF93282F30E0F901EE5AFD4F8491BE
:10046000F901E45FFD4FD491F901EA53FE4FC491C5
:10047000CC23A1F081110E94C101EC2FF0E0EE0F1E
:10048000FF1FE455FE4FA591B491EC91ED2381E05F
:1004900090E009F480E0DF91CF91089580E090E052
:1004A000FACF1F93CF93DF93282F30E0F901EE5A54
:1004B000FD4F8491F901E45FFD4FD491F901EA53B6
:1004C000FE4FC491CC23A9F0162F81110E94C101C7
:1004D000EC2FF0E0EE0FFF1FEE56FE4FA591B4910A
:1004E0008FB7F894EC91111108C0D095DE23DC93FE
:1004F0008FBFDF91CF911F910895DE2BF8CFCF935F
:10050000DF9390E0FC01E45FFD4F24918A539E4FFE
:10051000FC0184918823C9F090E0880F991FFC01A9
:10052000E858FE4FA591B491FC01EE56FE4FC591DF
:10053000D49161110DC09FB7F8948C9120958223BE
:100540008C938881282328839FBFDF91CF910895C2
:10055000623051F49FB7F8943C91822F80958323A9
:100560008C93E8812E2BEFCF8FB7F894EC912E2B44
:100570002C938FBFEACF90917B00977F90937B0065
:100580008653806480937C0080917A00806480939D
:100590007A0080917A0086FDFCCF8091780090915E
:1005A000790008953FB7F89480913F0990914009F0
:1005B000A0914109B091420926B5A89B05C02F3FE3
:1005C00019F00196A11DB11D3FBFBA2FA92F982F79
:1005D0008827BC01CD01620F711D811D911D42E074
:1005E000660F771F881F991F4A95D1F708958F923C
:1005F0009F92AF92BF92CF92DF92EF92FF924B0108
:100600005C010E94D2026B017C010E94D2026C1933
:100610007D098E099F09683E734081059105A8F305
:1006200021E0821A9108A108B10888EEC80E83E083
:10063000D81EE11CF11C81149104A104B10429F716
:10064000FF90EF90DF90CF90BF90AF909F908F90F2
:1006500008952FB7F89460913B0970913C098091FF
:100660003D0990913E092FBF089508950895DC013A
:10067000ED91FC910190F081E02D1994AF92BF9221
:10068000CF92DF92EF92FF920F931F93CF93DF935E
:100690006C017B018B01040F151FEB015E01AE188D
:1006A000BF08C017D10759F06991D601ED91FC91AF
:1006B0000190F081E02DC6011995892B79F7C501CC
:1006C000DF91CF911F910F91FF90EF90DF90CF902E
:1006D000BF90AF900895FC01538D448D252F30E0DD
:1006E000842F90E0821B930B541710F0CF9608953F
:1006F00001970895FC01918D828D981761F0A28D6C
:10070000AE0FBF2FB11D5D968C91928D9F5F9F7331
:10071000928F90E008958FEF9FEF0895FC01918DE7
:10072000828D981731F0828DE80FF11D858D90E054
:1007300008958FEF9FEF0895FC01918D228D892FF1
:1007400090E0805C9F4F821B91098F7399270895D9
:1007500083E499E00E949C0321E0892B09F420E0C6
:10076000822F0895FC01A48DA80FB92FB11DA35AA3
:10077000BF4F2C91848D90E001968F739927848FC1
:10078000A689B7892C93A089B1898C9183708064E4
:100790008C93938D848D981306C00288F389E02D85
:1007A00080818F7D80830895EF92FF920F931F9336
:1007B000CF93DF93EC0181E0888F9B8D8C8D981314
:1007C0001AC0E889F989808185FF15C09FB7F89420
:1007D000EE89FF896083E889F9898081837080646C
:1007E00080839FBF81E090E0DF91CF911F910F91B7
:1007F000FF90EF900895F62E0B8D10E00F5F1F4FC6
:100800000F731127E02E8C8D8E110CC00FB607FCD4
:10081000FACFE889F989808185FFF5CFCE010E9462
:10082000B203F1CFEB8DEC0FFD2FF11DE35AFF4F1B
:10083000F0829FB7F8940B8FEA89FB8980818062F0
:10084000CFCFCF93DF93EC01888D8823B9F0AA89AD
:10085000BB89E889F9898C9185FD03C0808186FD7B
:100860000DC00FB607FCF7CF8C9185FFF2CF8081CA
:1008700085FFEDCFCE010E94B203E9CFDF91CF918A
:10088000089580E090E0892B29F00E94A80381114F
:100890000E94000080E090E0892B49F080E090E029
:1008A000892B29F00E94000081110E94000080E045
:1008B00090E0892B49F080E090E0892B29F00E949C
:1008C000000081110E94000080E090E0892B49F037
:1008D00080E090E0892B29F00E94000081110C94A7
:1008E00000000895089520917708260F3327331FBD
:1008F00021323105ECF42091C008FC0190E080E049
:10090000243069F082E00895A09177082191AC012C
:10091000495A574FA40FB52FB11D2C930196861736
:1009200098F380917708680F6093770880E00895C6
:1009300081E008951092C00881E08093BF08109272
:100940009A0861E084E10E94510261E085E10E9421
:100950005102E9EBF0E080818E7F808380818D7F82
:10096000808388E48093B80085E48093BC00089578
:10097000CF93DF9391E0909356088823B9F0C0910C
:10098000B800D091BA008091BC008A7B8093BC00F3
:1009900060E084E10E94510260E085E10E94510222
:1009A0000E949A04D093BA00C093B800DF91CF910F
:1009B00008950895E091EF088091EE08E81730F46B
:1009C000F0E0EA5CF74F808190E008958FEF9FEFB1
:1009D00008959091EF088091EE082FEF3FEF981760
:1009E00048F4E92FF0E0EA5CF74F208130E09F5FA8
:1009F0009093EF08C90108958091EE089091EF0857
:100A0000891B990B0895CF92DF92EF92FF920F937B
:100A10001F93CF93DF937C01CB018A012091C608FD
:100A2000222389F0EB016B01C40ED51ECC15DD0528
:100A300069F06991D701ED91FC910190F081E02D71
:100A4000C7011995F3CF642F0E947304C801DF9189
:100A5000CF911F910F91FF90EF90DF90CF9008956D
:100A6000CF93DF931F92CDB7DEB769832091C6087D
:100A70002223F9F02091EC08203258F021E030E0F8
:100A8000FC013383228390E080E00F90DF91CF91CF
:100A900008958091ED08E82FF0E0E953F74F998130
:100AA00090838F5F8093ED088093EC0881E090E065
:100AB000ECCF61E0CE0101960E947304F7CFCF9294
:100AC000DF92EF92FF920F931F93CF93DF93FC017E
:100AD000C48121E02093C608C093E7081092ED0876
:100AE0001092EC088385682B80EE99E00E94300517
:100AF000D091EC08D13208F092C00E94D2026B0172
:100B00007C018091C008811165C082E08093C0089B
:100B100081E08093BF088FEF8093BE081092BD08DC
:100B2000D093BC08A7ECB8E0ECE9F8E080E0D8137B
:100B300085C010929B0880919B08CC0FC82BC09356
:100B40009B0880919A08813009F07CC010929A0825
:100B50000E94D2026B017C0180919B088093BB00B4
:100B60008091C2089091C308A091C408B091C508B3
:100B7000892B8A2B8B2B99F00E94D2020091C208FC
:100B80001091C3082091C4083091C5086C197D09E3
:100B90008E099F090617170728073907E0F180918A
:100BA000BC0083FDD9CF85EC8093BC000E94D202AB
:100BB0006B017C018091C008823009F445C08091AE
:100BC000BE088F3F61F18091BE08803241F1809173
:100BD000BE0825C08091C2089091C308A091C408A6
:100BE000B091C508892B8A2B8B2B09F48ACF0E94E0
:100BF000D2020091C2081091C3082091C40830911C
:100C0000C5086C197D098E099F0906171707280763
:100C1000390708F076CF8091C1080E94B80410927D
:100C2000ED081092EC081092C608DF91CF911F9149
:100C30000F91FF90EF90DF90CF9008959D91919349
:100C40008F5F75CF85EEB0CF8091C2089091C308B9
:100C5000A091C408B091C508892B8A2B8B2B09F46D
:100C6000A9CF0E94D2020091C2081091C30820911E
:100C7000C4083091C5086C197D098E099F090617B3
:100C800017072807390708F095CFC5CF90E080E017
:100C90000895CF92DF92EF92FF920F931F93CF931D
:100CA000DF931F921F92CDB7DEB769834A83880F07
:100CB000991F0091620A1091630A000F111FECE066
:100CC000FAE09F012C503A402017310714F411929A
:100CD000F8CF2981FC01E45FF54F21838A8180836D
:100CE00060E08091600A0E9451021016110604F51E
:100CF00001501109F801E45FF54FE080D0905E0AE1
:100D0000C0905C0A88E0F82E6E2D661F6627661F6D
:100D10008C2D0E945102EE0C61E08D2D0E9451023B
:100D200060E08D2D0E945102FA94F110EDCFDDCFDD
:100D300061E08091600A0F900F90DF91CF911F9139
:100D40000F91FF90EF90DF90CF900C945102EF92B3
:100D5000FF920F931F93CF937C018C0183E0000FD0
:100D6000111F8A95E1F7045E154FC1E0F801119259
:100D70008F0140E06C2FC7010E944906CF5FC93048
:100D8000A9F7CF911F910F91FF90EF9008952091B7
:100D9000620A3091630A12161306ACF4603198F4BB
:100DA000E62FF0E0E856FD4FE4914111E068DC01E8
:100DB000A45FB54F5096EC9361E0680F4E2F90E022
:100DC00080E00C94490608950F931F93CF938C01F4
:100DD000C62F0E945F056C2F6460C8010E945F05EA
:100DE0006C2F6B7FC8010E945F0583EC90E0019738
:100DF000F1F7CF911F910F9108950F931F93CF9308
:100E0000DF938C01D62FC42F607F642B0E94E406F1
:100E100080E1D89FB00111246C2BC801DF91CF91E4
:100E20001F910F910C94E40640E061E084E69AE0A3
:100E30000E94FD068BE39FE10197F1F70895CF93A0
:100E4000DF9300D000D01F921F92CDB7DEB798E09D
:100E5000EDE1F2E0DE01119601900D929A95E1F735
:100E600090916C0A961708F46FEF262F30E0220F4E
:100E7000331F41E050E04C0F5D1F240F351FF90177
:100E80006081680F606840E084E69AE028960FB6BB
:100E9000F894DEBF0FBECDBFDF91CF910C94FD065D
:100EA00041E00E94FD0681E090E00895FF920F93DB
:100EB0001F93CF93DF93EC018B01FB01F0800E9425
:100EC000FC1AF81621F06F2DCE010E94041BF801C8
:100ED000F1802196CE010E94FC1AF81621F06F2DA8
:100EE000CE010E94041BC801DF91CF911F910F9189
:100EF000FF9008950F931F93CF93DF938C01EB0125
:100F00000E94FC1A8883C80101960E94FC1A8983FA
:100F1000CE01DF91CF911F910F910895FC01808147
:100F20009181009711F00C941F1D0895FB01019011
:100F30000020E9F73197AF01461B570BDC01ED911B
:100F4000FC910280F381E02D199465E572E083E461
:100F500099E00C9496078F929F92AF92BF92EF9276
:100F6000FF920F931F93CF93DF93CDB7DEB7A19777
:100F70000FB6F894DEBF0FBECDBF7C01FA01CB01E6
:100F800019A2223008F42AE08E010F5D1F4F822E35
:100F9000912CB12CA12CBF01A50194010E94451CEC
:100FA000F901CA016A300CF5605DD8016E938D01BC
:100FB000232B242B252B79F790E080E0109721F04C
:100FC000BD01C7010E949607A1960FB6F894DEBF37
:100FD0000FBECDBFDF91CF911F910F91FF90EF908A
:100FE000BF90AF909F908F900895695CDECFCF92B5
:100FF000DF92EF92FF920F931F93CF93DF936B01DA
:10100000770FEE08FF08F7FE1BC0EC016DE20E94AF
:1010100037038C0144275527BA014C195D096E0925
:101020007F092AE0CE010E94AB07800F911FDF915C
:10103000CF911F910F91FF90EF90DF90CF90089587
:101040002AE0B701A601DF91CF911F910F91FF9088
:10105000EF90DF90CF900C94AB07CF93DF93BC0160
:1010600083E499E00E94F707EC010E94A5078C0F2A
:101070009D1FDF91CF910895CF93DF93BC0183E44F
:1010800099E00E949607EC010E94A5078C0F9D1F16
:10109000DF91CF9108952F923F924F925F926F927E
:1010A0007F928F929F92AF92BF92CF92DF92EF92F8
:1010B000FF921F93CF93DF93EC016A017B01722EA5
:1010C000AB019601CB01B6010E942C1C68E572E0D1
:1010D000811126C046015701E894B7F82FEF3FEF82
:1010E0004FE75FE7C501B4010E942C1C81110CC0C1
:1010F0002FEF3FEF4FE75FE7C501B4010E94D8191A
:101100006CE572E0181664F02FEF3FEF4FE75FE4F5
:10111000C701B6010E94271C1816B4F460E672E0FD
:10112000CE01DF91CF911F91FF90EF90DF90CF9094
:10113000BF90AF909F908F907F906F905F904F90F7
:101140003F902F900C9496072FEF3FEF4FE75FEC07
:10115000C701B6010E94D81987FDE0CF20E030E03A
:10116000A901C701B6010E94D819312C212C87FF93
:1011700009C06DE2CE010E9437031C01F7FAF0941A
:10118000F7F8F09410E060E070E080E09FE3711603
:1011900041F020E030E040E251E40E947F1B1F5FFD
:1011A000F6CFA70196010E94131B2B013C010E9460
:1011B000F81B4B015C012AE0BC01A401CE010E9496
:1011C000AB077C01E20CF31C1123C1F1C501B40192
:1011D0000E94DD199B01AC01C301B2010E94121BE8
:1011E0004B015C016EE2CE010E943703E80EF91E4E
:1011F000115020F120E030E040E251E4C501B4019B
:101200000E943E1A2B013C010E94F81B4B01B12C9D
:10121000A12C2AE0B501A401CE010E94AB07E80E83
:10122000F91EC501B4010E94DD199B01AC01C30187
:10123000B2010E94121B4B015C01DACFC701DF91A2
:10124000CF911F91FF90EF90DF90CF90BF90AF9024
:101250009F908F907F906F905F904F903F902F90D6
:1012600008950C944B086115710511F00C949607C4
:1012700090E080E008950E9414078091040290910C
:101280000502019609F049C066E672E084E69AE03C
:101290000E94330961E080E00E941F078091F208FC
:1012A0009091F3088230910539F12CF4009759F0B0
:1012B0000197B9F008958330910549F160EA72E031
:1012C000049739F1089565E772E084E69AE00E9498
:1012D00033096091F0087091F10884E69AE00C946B
:1012E000F7076EE772E084E69AE00E9433096091A6
:1012F000020270910302F1CF67E872E084E69AE09F
:101300000E9433096091000270910102E6CF60E90A
:1013100072E084E69AE00C94330967EA72E084E6AE
:101320009AE00E94330961E080E00E941F078091EB
:101330000402909105028130910531F182309105CE
:1013400071F1892B71F467E772E084E69AE00E94FC
:1013500033096091F0087091F10884E69AE00E94E8
:10136000F70761E08FE00E941F070E94290324EF26
:1013700031E040E050E00E94451C66E577E020FF48
:10138000C8CF64E672E0C5CF60E872E084E69AE018
:101390000E9433096091020270910302DECF69E876
:1013A00072E084E69AE00E94330960910002709135
:1013B0000102D3CF20910402309105022F3F320762
:1013C00009F4A6C02130310509F455C02230310599
:1013D00009F478C0232BF9F4882309F446C081E08E
:1013E00090E02091F0083091F108820F931F833331
:1013F0009105F4F59093F1088093F0088091F0083E
:101400009091F1088E3C9F4F34F48EEC9FEF9093B7
:10141000F1088093F0080E943B0961EB72E083E4DD
:1014200099E00E9433096091F0087091F10883E41B
:1014300099E00E94F70768EB72E083E499E00E946C
:101440003309609102027091030283E499E00E94E3
:10145000F70760EC72E083E499E00E943309809121
:101460000002909101020C942D088FEF9FEFB9CFED
:1014700082E390E0BFCF8823F9F085E090E02091EF
:10148000020230910302820F931F893522E09207F6
:10149000B4F490930302809302028091020290912F
:1014A0000302803991400CF0B6CF80E991E090932F
:1014B000030280930202AFCF8BEF9FEFE0CF88E56E
:1014C00092E0E7CF8823F1F081E090E020910002E4
:1014D00030910102820F931F89379105B4F49093E4
:1014E00001028093000280910002909101028035F8
:1014F00091050CF090CF80E590E0909301028093ED
:10150000000289CF8FEF9FEFE1CF88E790E0E7CF30
:101510002091F2083091F3088823E9F02150310935
:1015200037FD05C03093F3082093F20806C084E02D
:1015300090E09093F3088093F20868EC72E083E403
:1015400099E00E9433098091F2089091F3080E947B
:101550002D080C943B092F5F3F4F2530310514F3C4
:101560001092F3081092F208E8CF809134098111AB
:101570000C943B090E94140780910509909106097B
:101580008230910509F4BBC08CF4009751F10197AA
:1015900009F472C060E08FE00E941F0760910509A6
:1015A0007091060984E69AE00C94F7078330910560
:1015B00009F4E8C0049771F76FE173E084E69AE0FC
:1015C0000E94330961E080E00E941F0760911C09BE
:1015D00070911D0984E69AE00E94F7076BE273E0C0
:1015E00046C067EE72E084E69AE00E9433094091BB
:1015F000260950912709609128097091290930E046
:1016000020E084E69AE00E9431096AEE72E084E606
:101610009AE00E9433094091220950912309609178
:1016200024097091250930E020E084E69AE00E94C8
:10163000310964E075E084E69AE00E94330961E0D4
:1016400080E00E941F078091060265ED72E088230A
:1016500011F06FEC72E084E69AE00E943309809109
:10166000110961EE72E0882311F06BED72E084E6FF
:101670009AE00E9433098ECF6EEE72E084E69AE023
:101680000E94330940912609509127096091280949
:101690007091290930E020E084E69AE00E94310947
:1016A00062EF72E084E69AE00E94330940912609D5
:1016B00050912709609128097091290930E020E0B4
:1016C00084E69AE00E94310961E080E00E941F07F1
:1016D00067EF72E084E69AE00E94330940911809AE
:1016E0005091190960911A0970911B0921E030E0AD
:1016F00084E69AE00E9431096CEF72E0B8CF6EEF99
:1017000072E084E69AE00E943309409122095091E8
:101710002309609124097091250930E020E084E6D6
:101720009AE00E94310962E073E084E69AE00E9448
:101730003309409122095091230960912409709145
:10174000250930E020E084E69AE00E94310961E05A
:1017500080E00E941F0767E073E084E69AE00E9441
:10176000330940911409509115096091160970913F
:10177000170930E020E084E69AE00E94310964E035
:1017800075E075CF6CE073E084E69AE00E9433095F
:1017900040912A0950912B0960912C0970912D09D3
:1017A00021E030E084E69AE00E94310962E173E0D2
:1017B00084E69AE00E94330961E080E00E941F07FE
:1017C00064E173E084E69AE00E94330940911E09C7
:1017D00050911F09609120097091210921E030E0AA
:1017E00084E69AE00E9431096BE173E040CF80917A
:1017F000040A882319F081E08093050A8091FC098E
:10180000882319F081E08093FD098091F4098823F1
:1018100019F081E08093F5098091EC09882319F093
:1018200081E08093ED091092350910922F091092F2
:101830002E091092130960E088E00E94510261E0D5
:101840008EE00E9451021092120980E393E00E9400
:101850003C080E94140760E080E00E941F0762E6D7
:1018600073E084E69AE00E94330961E080E00E9420
:101870001F076EE673E084E69AE00E94330960ED8C
:1018800077E080E090E00E94F7020C94B50A85EDC5
:101890008093BC008091C2089091C308A091C408B5
:1018A000B091C5080796A11DB11D23E0B695A79577
:1018B000979587952A95D1F72091BC0024FD03C008
:1018C0001092C00808954091C2085091C3086091D9
:1018D000C4087091C508452B462B472B69F3009728
:1018E000A105B10541F02AE22A95F1F700C0019760
:1018F000A109B109E1CF8091C1080C94B8041F92ED
:101900000F920FB60F9211242F933F938F939F93B3
:10191000AF93BF9380913B0990913C09A0913D0901
:10192000B0913E0930913A0923E0230F2D3758F545
:101930000196A11DB11D20933A0980933B09909314
:101940003C09A0933D09B0933E0980913F099091D5
:101950004009A0914109B09142090196A11DB11D14
:1019600080933F0990934009A0934109B0934209A5
:10197000BF91AF919F918F913F912F910F900FBE8B
:101980000F901F90189526E8230F0296A11DB11DF8
:10199000D2CF1F920F920FB60F9211240BB60F9257
:1019A0002F933F934F935F936F937F938F939F9367
:1019B000AF93BF93EF93FF9383E499E00E94B20348
:1019C000FF91EF91BF91AF919F918F917F916F9117
:1019D0005F914F913F912F910F900BBE0F900FBED3
:1019E0000F901F9018951F920F920FB60F9211240F
:1019F0000BB60F922F938F939F93EF93FF93E091EA
:101A00005309F09154098081E0915909F0915A09E4
:101A100082FD1DC0908180915C098F5F8F73209142
:101A20005D09821741F0E0915C09F0E0ED5BF64F53
:101A3000958F80935C09FF91EF919F918F912F91EA
:101A40000F900BBE0F900FBE0F901F9018958081C6
:101A5000F2CF1F920F920FB60F9211240BB60F9276
:101A60002F933F934F935F936F937F938F939F93A6
:101A7000AF93BF93EF93FF938091B900887F803637
:101A800009F44DC008F040C0883209F4A9C028F517
:101A9000803109F49DC0C8F4882309F4FBC0883064
:101AA00009F496C0FF91EF91BF91AF919F918F91F3
:101AB0007F916F915F914F913F912F910F900BBE4E
:101AC0000F900FBE0F901F901895883109F488C0B1
:101AD000803241F78093BE0814C0803409F49DC061
:101AE00040F48033B9F38833E9F68093BE0885EC7F
:101AF000B0C0803509F485C0883509F496C08834B3
:101B000089F60E94470CCECF883909F48CC038F58D
:101B1000883729F050F4883611F0803719F683E0C1
:101B20008093C0081092990857C0883809F47BC088
:101B3000803919F0803809F0B5CF8091990880324A
:101B400008F071C0E091990881E08E0F80939908A8
:101B50008091BB00F0E0E758F74F80833DC0803BA9
:101B600039F0E0F4803A09F479C0883A09F09ACF64
:101B700084E08093C0081092780810927708E09172
:101B8000EA08F091EB0819958091770881110FC050
:101B900081E0809377081092570809C0803C09F4CF
:101BA000A6CF883C09F4A3CF883B09F07BCFE09116
:101BB000780881E08E0F80937808F0E0E95AF74FBB
:101BC00080818093BB00909178088091770829C02C
:101BD00080919B088093BB0085EC8093BC0062CF12
:101BE0009091BD088091BC08981758F5E091BD0808
:101BF00081E08E0F8093BD08F0E0E456F74F8081BE
:101C0000E9CFE091BD0881E08E0F8093BD088091FF
:101C1000BB00F0E0E456F74F80839091BD088091BF
:101C2000BC089817C8F285E8D8CFE091BD0881E0DC
:101C30008E0F8093BD088091BB00F0E0E456F74F13
:101C400080838091BF0881115CCF81E080939A08E6
:101C500084EA8093BC001092C00824CF85EC809366
:101C6000BC001092C00880919908803230F4E09155
:101C70009908F0E0E758F74F10826091990870E0FA
:101C8000E091E808F091E90889E798E01995109249
:101C9000990808CF1092BE0834CFEF92FF920F93AD
:101CA0001F93CF93DF93EC017B01198218821B8273
:101CB0001A821D821C82FB0101900020E9F73197F6
:101CC0008F01061B170BB8016F5F7F4F90E080E01C
:101CD0000E94A81D0097B9F0998388831B830A830B
:101CE0002C813D81232B11F4FC0110821D830C8378
:101CF000B70188819981DF91CF911F910F91FF905A
:101D0000EF900C94921E88819981009711F00E94A7
:101D10001F1D198218821D821C821B821A82DF916C
:101D2000CF911F910F91FF90EF900895CF93DF9384
:101D3000109246091092450988EE93E0A0E0B0E0C9
:101D40008093470990934809A0934909B0934A09A1
:101D500029E232E0309344092093430925EC30E036
:101D60003093500920934F0924EC30E0309352090E
:101D70002093510920EC30E030935409209353090B
:101D800021EC30E0309356092093550922EC30E0E5
:101D9000309358092093570926EC30E030935A09C4
:101DA0002093590910925C0910925D0910925E0906
:101DB00010925F091092E3091092E2098093E409FE
:101DC0009093E509A093E609B093E7098BE392E0CD
:101DD0009093E1098093E0091092670A1092660AD5
:101DE0008DE492E09093650A8093640A80E2809388
:101DF000680A80E180936D0A82E080936E0A1092F7
:101E00006F0ACBE0D0E0D0935D0AC0935C0A8DE00E
:101E100090E090935F0A80935E0A8AE090E090934E
:101E2000610A8093600A81E090E09093630A809356
:101E3000620A61E08BE00E947F0261E080915E0AAD
:101E40000E947F0261E08091600A0E947F0261E04F
:101E50008091600A0E945102D0935D0AC0935C0A8F
:101E6000ECE1FAE011928AE0EC35F807D9F7D0E01E
:101E7000C0E08091620A9091630AC817D90774F58F
:101E800040E06FE0CE010E9449068091620A909185
:101E9000630AC817D9072CF447E06BE0CE010E9413
:101EA000490640E069E0CE010E9449068091620A3D
:101EB0009091630AC817D9071CF4CE010E94A706A7
:101EC0008091620A9091630AC817D9072CF440E008
:101ED0006CE0CE010E9449062196CBCF6EE773E0FD
:101EE00086E09AE00E944D0E6AE873E08EEF99E07A
:101EF0000E944D0E68E973E086EF99E00E944D0E56
:101F000062EA73E08EEE99E0DF91CF910C944D0E72
:101F1000CF93DF9300D000D01F921F92CDB7DEB7D2
:101F2000789484B5826084BD84B5816084BD85B5B4
:101F3000826085BD85B5816085BD80916E008160C0
:101F400080936E0010928100809181008260809366
:101F50008100809181008160809381008091800068
:101F60008160809380008091B10084608093B10093
:101F70008091B00081608093B00080919100826078
:101F80008093910080919100816080939100809175
:101F900090008160809390008091A1008260809386
:101FA000A1008091A10081608093A1008091A00098
:101FB00081608093A0008091210182608093210143
:101FC00080912101816080932101809120018160B5
:101FD0008093200180917A00846080937A008091C0
:101FE0007A00826080937A0080917A008160809389
:101FF0007A0080917A00806880937A001092C10004
:10200000E0915309F091540982E08083E0914F09F7
:10201000F09150091082E0915109F09152098FEC32
:10202000808310925B09E0915709F091580986E08E
:102030008083E0915509F091560980818061808309
:10204000E0915509F0915609808188608083E09184
:102050005509F0915609808180688083E091550987
:10206000F091560980818F7D808368EE73E080E077
:1020700090E00E94F70281EC93E00E943C0882EF1E
:1020800093E00E943C0881EC93E00E943C0860E0F1
:1020900086E30E947F0260E087E30E947F0260E0A7
:1020A00088E30E947F0260E089E30E947F0260E093
:1020B0008AE30E947F0262E082E00E947F0262E087
:1020C00083E00E947F0262E084E00E947F0262E07F
:1020D00085E00E947F0261E08CE00E947F0261E067
:1020E00086E00E947F0261E087E00E947F0261E05B
:1020F00088E00E947F0261E089E00E947F0261E047
:102100008EE00E947F0260E086E00E94510260E063
:1021100087E00E94510260E088E00E94510260E086
:1021200089E00E94510261E08EE00E94510282E249
:1021300094E00E943C088091620A9091630A18160C
:10214000190634F441E06CE090E080E00E9449061A
:102150008091620A9091630A1816190634F448E0D7
:102160006AE090E080E00E9449068091620A9091C6
:10217000630A1816190624F490E080E00E94A7066E
:102180008EE394E00E943C081092EF081092EE0853
:102190001092ED081092EC080E949A0485E393E0F7
:1021A0009093EB088093EA0886E393E09093E90824
:1021B0008093E8081092690A80916E0A823018F0C4
:1021C00098E09093690A80936C0A62E370E080E083
:1021D00090E00E94F70260916F0A84E69AE00E9404
:1021E0005F0568EE73E080E090E00E94F70260E334
:1021F00084E69AE00E94E4060BE416E4C801019725
:10220000F1F760E384E69AE00E94E406C8010197D2
:10221000F1F760E384E69AE00E94E40683E592E049
:102220000197F1F760E284E69AE00E94E40660918B
:10223000690A606240E084E69AE00E94FD0684E05C
:1022400080936A0A40E06CE084E69AE00E94FD0612
:102250000E94140782E080936B0A40E066E084E607
:102260009AE00E94FD0640E062E084E69AE00E9467
:10227000FD068BE39FE10197F1F788E080936F0AF9
:1022800060E084E69AE00E945F0560E080E00E94E2
:102290001F0761E674E084E69AE00E94330981E753
:1022A00094E00E943C0860ED77E080E090E00E94BE
:1022B000F70290E080E00E94FC1A182F81EC93E076
:1022C0000E943C088CE894E00E943C081A3A09F00D
:1022D00093C360EF78E081E090E00E947A0762E0CB
:1022E00072E083E090E00E947A0760E072E085E0AF
:1022F00090E00E947A078FEA94E00E943C0868EF21
:1023000074E083E499E00E9433096091F0087091D1
:10231000F10883E499E00E94F70783E095E00E94CA
:102320003C0866E075E083E499E00E9433098091FF
:102330000202909103020E942D0861E175E083E49E
:1023400099E00E94330980910002909101020E945D
:102350002D0881EC93E00E943C080E94A5078CE1C7
:1023600095E00E943C0887E395E00E943C080E94AB
:10237000A5070E94140711E0FAE0EF2EF12CA8EB5C
:102380002A2EA2E03A2E88248A94982C86E30E9472
:10239000BB02BC01990F880B990B0E94DF1920E04A
:1023A00030E04AEF53E40E943E1A20E030EC4FE761
:1023B00054E40E947F1B60932A0970932B09809339
:1023C0002C0990932D0987E30E94BB02BC01990F51
:1023D000880B990B0E94DF1920E030E048EC52E4B2
:1023E0000E943E1A20E030EC4FE754E40E947F1B2D
:1023F0002B013C016091000270910102072E000C3C
:10240000880B990B0E94DF1920E030E048EC52E481
:102410000E947F1B9B01AC01C301B2010E943E1AC6
:102420002B013C014092260950922709609228090D
:102430007092290988E30E94BB02BC01990F880BA6
:10244000990B0E94DF1920E030E04AEF53E40E942C
:102450003E1A20E030EC4FE754E40E947F1B5B0102
:102460006C016091020270910302072E000C880B30
:10247000990B0E94DF1920E030E04AEF53E40E94FC
:102480007F1B9B01AC01C601B5010E943E1A5B0196
:102490006C016091F0087091F108072E000C880B18
:1024A000990B0E94DF199B01AC01C601B5010E9486
:1024B000131B5B016C01A0922209B0922309C09208
:1024C0002409D092250989E30E94BB02BC01990F1F
:1024D000880B990B0E94DF1920E030E040EA51E4BC
:1024E0000E943E1A20E030EC4FE754E40E947F1B2C
:1024F00060931E0970931F0980932009909321090E
:102500008AE30E94BB029C0148EB5BE0249FC00170
:10251000259F900D349F900D11246FEF73E00E9462
:10252000311C70931D0960931C092091180930918A
:10253000190940911A0950911B09C301B2010E9467
:10254000271C181644F440921809509219096092F9
:102550001A0970921B0920911409309115094091B4
:10256000160950911709C601B5010E94271C1816BB
:1025700044F4A0921409B0921509C0921609D092A1
:10258000170920E030E044EB52E4C301B2010E949D
:10259000271C18160CF045C28091040A811108C04E
:1025A0001093040A1092050A8AE595E00E943C08FF
:1025B00020E030E041EE53E460912209709123095C
:1025C00080912409909125090E94271C18160CF06F
:1025D0002BC28091FC09811108C01093FC09109254
:1025E000FD0986E795E00E943C0820E030E040EAE3
:1025F00052E460912A0970912B0980912C099091E5
:102600002D090E94271C18160CF011C28091F409A4
:10261000811108C01093F4091092F50984E995E03E
:102620000E943C0820E030E040EA50E460911E093E
:1026300070911F0980912009909121090E94D81959
:1026400087FFF8C18091EC09811108C01093EC0953
:102650001092ED098EEA95E00E943C088091040AF0
:10266000882321F09091050A9923B9F08091FC0903
:10267000882321F09091FD09992379F08091F40944
:10268000882321F09091F509992339F08091EC0984
:10269000882319F08091ED098127809335090091F5
:1026A000100980911109882309F4C7C1809106029D
:1026B0008111C3C120E030E040EA50E460911E097E
:1026C00070911F0980912009909121090E94271C77
:1026D00087FDB3C1809113098111AFC101110AC0F7
:1026E00061E089E00E945102109310098AEC95E0A4
:1026F0000E943C0820E030E040E251E4609126096D
:102700007091270980912809909129090E943E1A09
:102710000E94F11B6B01683E734024F0E7EECE2E61
:10272000E3E0DE2EC60164E670E00E94311CCB01BE
:10273000B7010E94311C40E0682F85E090E00E94C4
:10274000C706C601B7010E94311C082FCB01B70193
:102750000E94311C41E0682F86E090E00E94C7068D
:1027600040E0602F87E090E00E94C7068091620AF7
:102770009091630A181619064CF4F10144914093A4
:10278000200A65E090E080E00E94490660912209FD
:102790007091230980912409909125090E94F11BD1
:1027A0006B01683E734024F077EEC72E73E0D72E9E
:1027B000C60164E670E00E94311CCB01B7010E94A3
:1027C000311C40E0682F90E080E00E94C706C601FF
:1027D000B7010E94311C082FCB01B7010E94311CA8
:1027E00040E0682F81E090E00E94C70640E0602F43
:1027F00082E090E00E94C7068091620A9091630A8D
:10280000181619064CF4F101449140931F0A64E034
:1028100090E080E00E94490682E00E9428026C015C
:102820008091150290911602C816D90651F00E94A7
:10283000290360930709709308098093090990930D
:102840000A090E94290340900709509008096090E6
:10285000090970900A096419750986099709633393
:1028600071058105910588F1809113029091140200
:10287000C816D90651F1D0921402C0921302C114A5
:10288000D10419F58091350981111FC08091340957
:1028900081111BC080910509909106090196853030
:1028A00091050CF0D6C090930609809305090E940B
:1028B000B50A65EF75E083E499E00E9433098091E1
:1028C0000509909106090E942D08D0921602C09227
:1028D000150285E00E9428026C01809111029091FE
:1028E0001202C816D90651F00E942903609301090B
:1028F0007093020980930309909304090E942903AD
:1029000040900109509002096090030970900409F9
:102910006419750986099709633371058105910565
:1029200008F4C4C080910F02909110028C159D058F
:1029300009F4BCC0D0921002C0920F02C114D1049D
:10294000A1F40E9429036093FD087093FE08809310
:10295000FF08909300091092FC08809134098111BE
:10296000A5C081E096E00E943C0880910F02909102
:102970001002019709F09AC00E942903209134099E
:102980004090FD085090FE086090FF08709000098C
:102990006419750986099709683B7B408105910593
:1029A00008F45CC021117AC08CE296E00E943C08D9
:1029B0008091350981110E94F70B10933409109210
:1029C000F3081092F20890920502809204020E948D
:1029D000A50784ED93E00E943C088FE496E00E94F6
:1029E0003C0884ED93E00E943C0868EE73E080E0D0
:1029F00090E00E94F70243C08AEC94E00E943C08F9
:102A00001092F1081092F00884EF91E09093030285
:102A10008093020284E690E090930102809300028A
:102A20006ECC1092040AC4CD1092FC09DECD109237
:102A3000F409F8CD1092EC0911CE002309F45ACE16
:102A400060E089E00E945102109210098FED95E03C
:102A50004FCE109206091092050929CF222309F4BE
:102A6000E0C28091040290910502019659F0909283
:102A70000502809204028CE696E00E943C080E94C7
:102A80003B090CC08091F2089091F30883309105C6
:102A900009F455C20CF028C297FF40C21092FD08FD
:102AA0001092FE081092FF081092000980910F0208
:102AB00090911002892B09F049C08091FC08811186
:102AC00045C080913409811141C00E942903409082
:102AD000FD085090FE086090FF08709000099B016F
:102AE000AC01241935094609570929013A01DA01CF
:102AF000C901845F9140A109B109843C9940A105B5
:102B0000B10508F0D2C260E080E00E941F0767E3D1
:102B100077E084E69AE00E94330961E080E00E9459
:102B20001F07C301B20128EE33E040E050E00E94ED
:102B3000451CB9016F5F7F4F84E69AE00E94F7075A
:102B400068E477E084E69AE00E943309D0921202AA
:102B5000C092110283E00E9428026C0180910D0254
:102B600090910E02C816D90651F00E942903609375
:102B7000F8087093F9088093FA089093FB080E9474
:102B800029034090F8085090F9086090FA08709076
:102B9000FB08641975098609970963337105810576
:102BA0009105B0F080910B0290910C02C816D906E5
:102BB00079F0D0920C02C0920B02C114D10441F4FE
:102BC00080913409882309F48DC281E00E94DA09DA
:102BD000D0920E02C0920D0284E00E9428026C0185
:102BE0008091090290910A02C816D90651F00E94FC
:102BF00029036093F4087093F5088093F608909386
:102C0000F7080E9429034090F4085090F50860905E
:102C1000F6087090F70864197509860997096333F7
:102C2000710581059105B0F080910702909108022D
:102C3000C816D90679F0D0920802C0920702C114D2
:102C4000D10441F480913409882309F48DC280E0D5
:102C50000E94DA09D0920A02C092090280913509D5
:102C600064E6C62ED12C811104C054EFC52EDD249C
:102C7000D3940E94290340900C0950900D09609054
:102C80000E0970900F09AB01BC0144195509660982
:102C90007709C601DD0CAA0BBB0B84179507A607A5
:102CA000B70790F460910B09612760930B098CE0E2
:102CB0000E9451020E94290360930C0970930D0930
:102CC00080930E0990930F099091FC09809113094C
:102CD000992321F09091FD09992349F09091040ADC
:102CE000992309F483C29091050A91117FC2811141
:102CF00006C01093130989EA97E00E943C0860E03F
:102D000086E00E94510260E089E00E94510261E089
:102D100088E00E94510261E08EE00E945102109210
:102D2000110910921009109312090E942903409072
:102D30003609509037096090380970903909641944
:102D4000750986099709653F71408105910508F469
:102D500013C380913509882309F417C38091FC09B6
:102D6000882309F45EC28091FD0981115AC28CEF5B
:102D700099E09A838983CC24C394D12C8091040A4E
:102D80008823A1F08091050A811110C0F601EE0F91
:102D9000FF1F81E090E08C0F9D1FE80FF91F84E07A
:102DA0009AE091838083F60131966F018091F40956
:102DB0008823A9F08091F509811111C0F601EE0F69
:102DC000FF1F21E030E02C0F3D1FE20FF31F84EFC7
:102DD00099E091838083A6014F5F5F4F6A018091E4
:102DE000EC09882309F420C28091ED0981111CC2ED
:102DF000F601EE0FFF1F81E090E08C0F9D1FE80FA2
:102E0000F91F8CEE99E091838083F60131966F0172
:102E10000E94290340903009509031096090320996
:102E2000709033096419750986099709613D7740E7
:102E300081059105B8F080912E0990912F09019696
:102E40008C159D050CF09CC290932F0980932E0940
:102E50000E942903609330097093310980933209ED
:102E6000909333090E94140760E080E00E941F07DE
:102E70006CE178E084E69AE00E94330961E080E04A
:102E80000E941F07E0912E09F0912F09EE0FFF1FFE
:102E900021E030E02C0F3D1FE20FF31F0190F08185
:102EA000E02D468157816281738184E69AE00E9419
:102EB0003E0331E0C316D10409F4BAC160E08EE0EC
:102EC0000E941F076BE278E084E69AE00E943309D3
:102ED000B60184E69AE00E94F7076DE278E084E6A6
:102EE0009AE00E943309A4C1049709F0D7CD10924B
:102EF00034090E94140764EE76E084E69AE00E94AA
:102F0000330968EE73E080E090E00E94F7028EEEF5
:102F100096E00E943C080E94B50AC0CD909305023D
:102F2000809304026EE776E083E499E00E9433091F
:102F30008091F2089091F3080E942D08A0CD81ECB9
:102F400093E00E943C0889E896E00E943C086AEA07
:102F500090E080E00E94041B60EF78E081E090E068
:102F60000E94560762E072E083E090E00E945607FC
:102F700060E072E085E090E00E9456078AEA96E001
:102F80000E943C0868EF74E083E499E00E943309F2
:102F90006091F0087091F10883E499E00E94F707CE
:102FA00083E095E00E943C0866E075E083E499E0E8
:102FB0000E94330980910202909103020E942D0821
:102FC00061E175E083E499E00E9433098091000299
:102FD000909101020E942D0881EC93E00E943C0830
:102FE0000E94140760E080E00E941F076DEC76E00D
:102FF00084E69AE00E94330964EF71E080E090E09B
:103000000E94F70261E080E00E941F0769ED76E010
:1030100084E69AE00E9433096CED75E080E090E070
:10302000E8CC80913509882319F00E94F70B36CD42
:103030008091260990912709A0912809B09129092A
:103040008093180990931909A0931A09B0931B094A
:103050008091220990912309A0912409B09125091A
:103060008093140990931509A0931609B09317093A
:103070000E9414076FEF76E084E69AE00E9433091D
:1030800061E080E00E941F076FE077E084E69AE04D
:103090000E9433098FE197E00E943C0868EE73E0DC
:1030A00080E090E00E94F70236CF48EB44164BE0F8
:1030B00054066104710408F449CD1093FC0888E5B6
:1030C00097E00E943C080E94140768E677E084E6D7
:1030D0009AE00E94330961E080E00E941F0765E7E3
:1030E00077E030CD80913509811172CD6091110961
:1030F00061276093110986E00E9451020E94140723
:1031000063E877E084E69AE00E94330961E080E0BA
:103110000E941F078091110961EB73E0811102C0C9
:103120006EEA73E084E69AE00E9433096BE877E088
:1031300083E499E00E94330980911109882389F082
:1031400081EB93E00E943C0868EE73E080E090E041
:103150000E94F7028091340981113ACD0E94B50A8C
:1031600037CD8EEA93E0EECF80913509811172CD93
:103170006091060261276093060287E00E94510277
:103180000E94140768E977E084E69AE00E94330918
:1031900061E080E00E941F078091060268EB73E007
:1031A000811102C06DEB73E084E69AE00E9433095E
:1031B0006DE977E083E499E00E943309809106028B
:1031C000882389F088EB93E00E943C0868EE73E066
:1031D00080E090E00E94F7028091340981113ACD9D
:1031E0000E94B50A37CD8DEB93E0EECF882331F006
:1031F00084EC97E00E943C08109213098091120918
:10320000882351F060E088E00E9451021092120978
:1032100085E098E00E943C0861E08EE00E94510247
:1032200084CDD12CC12CAACDC114D10409F0F0CD8C
:1032300080913409811196C06FE278E083E499E0CF
:103240000E9433090E942903AB01BC012AE083E4F8
:1032500099E00E94AB0763E378E083E499E00E9481
:10326000330940912A0950912B0960912C097091E2
:103270002D0922E030E083E499E00E94310963E304
:1032800078E083E499E00E94330940912609509147
:103290002709609128097091290922E030E083E430
:1032A00099E00E94310963E378E083E499E00E94A9
:1032B00033094091220950912309609124097091AA
:1032C000250921E030E083E499E00E94310963E3BD
:1032D00078E083E499E00E94330940911E095091FF
:1032E0001F09609120097091210922E030E083E4F8
:1032F00099E00E94310963E378E083E499E00E9459
:10330000330960911C0970911D0983E499E00E94C2
:10331000F70763E378E083E499E00E943309409182
:1033200018095091190960911A0970911B0922E03E
:1033300030E083E499E00E94310963E378E083E4BC
:1033400099E00E9433094091140950911509609148
:1033500016097091170921E083E499E00E944B0857
:103360000E94A5070E9429036093360970933709CC
:1033700080933809909339090E9441040C94C61136
:1033800010922F0910922E0963CD0E94B50A50CFDA
:103390008EEE99E00E948E0786EF99E00E948E07DC
:1033A0008EEF99E00E948E0786E09AE00C948E07DB
:1033B0000E941A1A08F481E00895E89409C097FB66
:1033C0003EF490958095709561957F4F8F4F9F4FFC
:1033D0009923A9F0F92F96E9BB279395F695879540
:1033E00077956795B795F111F8CFFAF4BB0F11F403
:1033F00060FF1BC06F5F7F4F8F4F9F4F16C08823AA
:1034000011F096E911C0772321F09EE8872F762FDF
:1034100005C0662371F096E8862F70E060E02AF020
:103420009A95660F771F881FDAF7880F969587950C
:1034300097F90895990F0008550FAA0BE0E8FEEFE1
:1034400016161706E807F907C0F012161306E40768
:10345000F50798F0621B730B840B950B39F40A2661
:1034600061F0232B242B252B21F408950A2609F43F
:10347000A140A6958FEF811D811D08950E94511ACC
:103480000C94C21A0E94B41A38F00E94BB1A20F0A1
:10349000952311F00C94AB1A0C94B11A11240C94CE
:1034A000F61A0E94D31A70F3959FC1F3950F50E05E
:1034B000551F629FF001729FBB27F00DB11D639FE6
:1034C000AA27F00DB11DAA1F649F6627B00DA11D8C
:1034D000661F829F2227B00DA11D621F739FB00D32
:1034E000A11D621F839FA00D611D221F749F3327A2
:1034F000A00D611D231F849F600D211D822F762F3B
:103500006A2F11249F5750409AF0F1F088234AF017
:10351000EE0FFF1FBB1F661F771F881F9150504083
:10352000A9F79E3F510580F00C94AB1A0C94F61A43
:103530005F3FE4F3983ED4F3869577956795B7950A
:10354000F795E7959F5FC1F7FE2B880F911D969524
:10355000879597F9089597F99F6780E870E060E094
:1035600008959FEF80EC089500240A94161617061C
:1035700018060906089500240A9412161306140664
:1035800005060895092E0394000C11F4882352F0C7
:10359000BB0F40F4BF2B11F460FF04C06F5F7F4F7F
:1035A0008F4F9F4F089557FD9058440F551F59F066
:1035B0005F3F71F04795880F97FB991F61F09F3F20
:1035C00079F087950895121613061406551FF2CF49
:1035D0004695F1DF08C0161617061806991FF1CF99
:1035E00086957105610508940895E894BB276627C0
:1035F0007727CB0197F90895F999FECF92BD81BD48
:10360000F89A992780B50895262FF999FECF1FBA09
:1036100092BD81BD20BD0FB6F894FA9AF99A0FBEFB
:10362000019608955058BB27AA270E942A1B0C9484
:10363000C21A0E94B41A38F00E94BB1A20F039F462
:103640009F3F19F426F40C94B11A0EF4E095E7FBB1
:103650000C94AB1AE92F0E94D31A58F3BA176207D9
:1036600073078407950720F079F4A6F50C94F51AF2
:103670000EF4E0950B2EBA2FA02D0B01B90190018D
:103680000C01CA01A0011124FF27591B99F0593FD1
:1036900050F4503E68F11A16F040A22F232F342F19
:1036A0004427585FF3CF469537952795A795F04067
:1036B0005395C9F77EF41F16BA0B620B730B840B7C
:1036C000BAF09150A1F0FF0FBB1F661F771F881F34
:1036D000C2F70EC0BA0F621F731F841F48F487958C
:1036E00077956795B795F7959E3F08F0B0CF93957E
:1036F000880F08F09927EE0F9795879508950E94F7
:10370000931B0C94C21A0E94BB1A58F00E94B41A60
:1037100040F029F45F3F29F00C94AB1A51110C943E
:10372000F61A0C94B11A0E94D31A68F39923B1F3D4
:10373000552391F3951B550BBB27AA2762177307D7
:10374000840738F09F5F5F4F220F331F441FAA1F6B
:10375000A9F335D00E2E3AF0E0E832D09150504027
:10376000E695001CCAF72BD0FE2F29D0660F771FD5
:10377000881FBB1F261737074807AB07B0E809F0BB
:10378000BB0B802DBF01FF2793585F4F3AF09E3F40
:10379000510578F00C94AB1A0C94F61A5F3FE4F3E1
:1037A000983ED4F3869577956795B795F7959F5F83
:1037B000C9F7880F911D9695879597F90895E1E0CF
:1037C000660F771F881FBB1F621773078407BA072E
:1037D00020F0621B730B840BBA0BEE1F88F7E09589
:1037E00008950E94F81B6894B1110C94F61A08957C
:1037F0000E94DB1A88F09F5798F0B92F9927B7518C
:10380000B0F0E1F0660F771F881F991F1AF0BA9584
:10381000C9F714C0B13091F00E94F51AB1E00895D3
:103820000C94F51A672F782F8827B85F39F0B93FC5
:10383000CCF3869577956795B395D9F73EF4909537
:103840008095709561957F4F8F4F9F4F08950E948F
:103850001A1A08F48FEF08950E941A1A880B990B10
:10386000089597FB072E16F4009407D077FD09D032
:103870000E946F1C07FC05D03EF4909581959F4FE8
:103880000895709561957F4F0895A1E21A2EAA1BA5
:10389000BB1BFD010DC0AA1FBB1FEE1FFF1FA21700
:1038A000B307E407F50720F0A21BB30BE40BF50BFD
:1038B000661F771F881F991F1A9469F76095709586
:1038C000809590959B01AC01BD01CF010895EE0F4D
:1038D000FF1F881F8BBF0790F691E02D1994AA1B3C
:1038E000BB1B51E107C0AA1FBB1FA617B70710F0EB
:1038F000A61BB70B881F991F5A95A9F7809590951D
:10390000BC01CD0108950F931F93CF93DF938230B5
:10391000910510F482E090E0E091720AF091730A50
:1039200030E020E0B0E0A0E0309799F421153105B7
:1039300009F44AC0281B390B24303105D8F58A8197
:103940009B816115710589F1FB0193838283FE01DF
:1039500011C0408151810281138148175907E0F05D
:103960004817590799F4109761F012960C93129723
:1039700013961C933296CF01DF91CF911F910F9137
:1039800008950093720A1093730AF4CF211531053C
:1039900051F04217530738F0A901DB019A01BD012C
:1039A000DF01F801C1CFEF01F9CF9093730A809343
:1039B000720ACDCFFE01E20FF31F81939193225043
:1039C000310939832883D7CF2091700A3091710A49
:1039D000232B41F42091190230911A023093710A7D
:1039E0002093700A20911702309118022115310599
:1039F00041F42DB73EB740911B0250911C02241B8D
:103A0000350BE091700AF091710AE217F307A0F408
:103A10002E1B3F0B2817390778F0AC014E5F5F4F24
:103A20002417350748F04E0F5F1F5093710A4093DB
:103A3000700A819391939FCFF0E0E0E09CCFCF9309
:103A4000DF930097E9F0FC01329713821282A09174
:103A5000720AB091730AED0130E020E01097A1F4F2
:103A600020813181820F931F2091700A3091710A59
:103A70002817390709F061C0F093710AE093700AC2
:103A8000DF91CF910895EA01CE17DF07E8F54A816B
:103A90005B819E0141155105B1F7E901FB83EA8382
:103AA00049915991C40FD51FEC17FD0761F480812E
:103AB00091810296840F951FE90199838883828101
:103AC00093819B838A83F0E0E0E012968D919C9134
:103AD00013970097B9F52D913C911197CD0102965E
:103AE000820F931F2091700A3091710A28173907AD
:103AF00039F6309751F51092730A1092720AB0930A
:103B0000710AA093700ABCCFD383C28340815181D4
:103B1000840F951FC817D90761F44E5F5F4F8881E6
:103B20009981480F591F518340838A819B819383D8
:103B300082832115310509F0B0CFF093730AE09329
:103B4000720A9ECFFD01DC01C0CF13821282D7CF53
:103B50004F925F926F927F928F929F92AF92BF929D
:103B6000CF92DF92EF92FF920F931F93CF93DF9349
:103B70008C01009799F4CB01DF91CF911F910F91A8
:103B8000FF90EF90DF90CF90BF90AF909F908F907D
:103B90007F906F905F904F900C94831CFC01E60F18
:103BA000F71F9C0122503109E217F30708F4AEC059
:103BB000D901CD91DC911197C617D70720F1C530F7
:103BC000D10578F0CE0104978617970750F0C61BF1
:103BD000D70B2297C193D1936D937C93CF010E9411
:103BE0001F1DC801DF91CF911F910F91FF90EF90A2
:103BF000DF90CF90BF90AF909F908F907F906F900D
:103C00005F904F9008955B01AC1ABD0A4C018C0E79
:103C10009D1EA091720AB091730A512C412CF12C77
:103C2000E12C109731F58091700A9091710A8815F6
:103C3000990509F05CC04616570608F058C08091F7
:103C4000170290911802009741F48DB79EB74091EA
:103C50001B0250911C02841B950BE817F90708F012
:103C600055C0F093710AE093700AF9017183608383
:103C7000B8CF8D919C91119712966C9012971396D4
:103C80007C901397A815B90559F56C0142E0C40E54
:103C9000D11CCA14DB0420F1AC014A195B09DA011A
:103CA0001296159780F06282738251834083D90106
:103CB0006D937C93E114F10471F0D7011396FC939A
:103CC000EE9312978ECF22968C0F9D1FF901918350
:103CD0008083F301EFCFF093730AE093720A81CFF0
:103CE0004816590608F42C017D01D3019ACFCB0167
:103CF0000E94831C7C01009749F0AE01B8010E942C
:103D0000891EC8010E941F1D87016BCF10E000E0D3
:103D100068CFFB01DC0102C001900D924150504080
:103D2000D8F70895FB01DC0101900D920020E1F726
:103D3000089511E0CDE8D1E000E006C0802FFE013B
:103D40000E94671C2196011DCE38D10780E008072C
:063D5000A9F7F894FFCF73
:103D56006400F401FFFF0101000100010001000100
:103D6600000100010001000000740A80000000400C
:103D7600001400540000000000D4033E036B03212E
:103D8600049C037A038E03000000003005030546F9
:103D960006D904FC04E904DA040000000050073EDA
:103DA60003460672040D0A006E616E00696E6600B7
:103DB6006F7666003C003E3E3E2043414C494252EF
:103DC6004143414F00312E495A45524F3A00322E57
:103DD600495350414E3A00332E565350414E3A0005
:103DE600342E53616C76617220454550524F4D001A
:103DF600352E536169720045444954414E444F3A49
:103E060000495A45524F3D0020495350414E3D000E
:103E160020565350414E3D004974656D3A2000537B
:103E26004D415720004D49472020005B4F4E5D20F5
:103E3600005B4F46465D00563A0020493A005672EE
:103E46003A002056613A0056706B3A0056004972A5
:103E56003A002049613A0049706B3A0054656D702A
:103E66003A004300466C75786F3A004C2F6D004D52
:103E76006F746F72204172616D65002052504D0063
:103E86005B41434B5D20416C61726D6573207265C9
:103E9600636F6E68656369646F73202D2056656E67
:103EA60074696C6163616F204445534C49474144D2
:103EB6004100416C61726D65732041434B0055733F
:103EC6006520555020702F206C6967617200534F32
:103ED60042524554454E53414F00534F425245437B
:103EE6004F5252454E54450054454D5020414C5476
:103EF600410042414958412056415A414F004445EC
:103F0600534C494741444F00534D4157004D494793
:103F1600003D3D3D3D3D3D3D3D3D3D3D3D3D3D3D08
:103F26003D3D3D3D3D3D3D3D3D3D3D3D3D3D3D3DBB
:103F36003D3D3D3D3D3D3D3D3D3D3D3D3D3D3D3DAB
:103F46003D003D3D3D202053495354454D412044BD
:103F5600452043414C4942524143414F202D204D7B
:103F6600415155494E415320534F4C4441203D3D0C
:103F76003D005B4F4B5D20352052656C65732069B3
:103F86006E696369616C697A61646F7321005B4F66
:103F96004B5D20446973706C6179204D415837320E
:103FA600313920696E696369616C697A61646F2170
:103FB6000053697374656D612050726F6E746F2162
:103FC600005B4F4B5D204C43442049324320696ED1
:103FD600696369616C697A61646F21004341525279
:103FE6004547414E444F2043414C4942524143418B
:103FF6004F20444120454550524F4D2E2E2E005BFA
:104006004F4B5D2043616C6962726163616F20632F
:1040160061727265676164613A005B415649534F4C
:104026005D20454550524F4D2076617A6961202DBD
:10403600207573616E646F2076616C6F7265732094
:1040460070616472616F3A002020495A45524F20D0
:104056003D20002041002020495350414E203D2064
:10406600002020565350414E203D20003D3D3D202E
:104076004D454E552044452043414C49425241430B
:10408600414F203D3D3D005072657373696F6E650B
:1040960020454E54455220706F7220337320706154
:1040A600726120656E747261720021212120414C7B
:1040B60041524D453A20534F42524554454E534185
:1040C6004F202121210021212120414C41524D45E3
:1040D6003A20534F425245434F5252454E54452083
:1040E6002121210021212120414C41524D453A20D8
:1040F60054454D5020414C5441202121210021217D
:104106002120414C41524D453A20424149584120D7
:1041160056415A414F20212121005B4741535D20E2
:1041260056616C76756C6120414245525441005B84
:104136004741535D2056616C76756C612046454358
:1041460048414441004D454E553A2054656C612026
:1041560000454E544552207072657373696F6E61E7
:10416600646F2028736567757265203373207061EC
:104176007261206D656E75292E2E2E003E3E3E2004
:10418600454E544552204C4F4E474F202D204D65ED
:104196006E752063616C6962726163616F210020D4
:1041A600204D454E552044452043414C49425241FD
:1041B60043414F20415449564F20200056616C6FB1
:1041C6007220636F6E6669726D61646F210045646B
:1041D6006974616E646F3A200053414C56414E44F7
:1041E6004F2043414C4942524143414F204E4120CA
:1041F600454550524F4D2E2E2E005B4F4B5D2043B2
:10420600616C6962726163616F2073616C766120B3
:10421600636F6D207375636573736F210053616CF3
:1042260076616E646F2E2E2E004F4B212045455031
:10423600524F4D005361696E646F2E2E2E003E3E26
:104246003E205341495520444F204D454E55005080
:1042560069636F7320526573657461646F7300568A
:10426600706B2F49706B203D20617475616C005B2B
:1042760052455345545D205069636F7320726573D0
:10428600657461646F730053656775726520454E8A
:104296005445522E2E2E200073202F2033732020BB
:1042A60020202020202020003E3E3E203320534563
:1042B60047554E444F532100416272696E646F2028
:1042C6004D656E750043616C6962726163616F2E44
:1042D6002E2E0053697374656D610055503A205354
:1042E600697374656D6120004D6F646F00444F57AC
:1042F6004E3A204D6F646F200021212120454D4507
:104306005247454E43494120415449564144412074
:10431600212121005B454D455247454E4349415DAC
:1043260020436F6E646974696F6E20636C65617299
:104336006564202D206465736C6967616E646F2007
:1043460072656CC3A97320646520736567757261B5
:104356006EC3A761005B56454E54494C4143414FDD
:104366005D204465736C69676164610021212120C9
:10437600414C41524D45202121210028002900446D
:064386004154412C00002F
:00000001FF
